:020000040800F2
:1000000020080020910100085F200008151C00084E
:100010005D2000088F040008F125000800000000A2
:10002000000000000000000000000000F3200008B5
:100030009104000800000000F1200008F5200008ED
:10004000AB010008AB010008AB010008AB010008E0
:10005000AB010008AB010008AB010008AB010008D0
:10006000AB010008AB010008AB010008AB010008C0
:10007000AB010008AB010008AB010008AB010008B0
:10008000AB010008AB010008AB010008AB010008A0
:10009000AB010008AB010008AB010008AB01000890
:1000A000AB010008AB010008AB010008AB01000880
:1000B000AB01000859210008AB010008AB010008A2
:1000C000AB010008AB010008AB010008AB01000860
:1000D000AB010008AB010008AB010008E5250008F2
:1000E000AB010008AB010008AB01000800F002F80A
:1000F00000F03FF80AA090E8000C82448344AAF183
:100100000107DA4501D100F034F8AFF2090EBAE880
:100110000F0013F0010F18BFFB1A43F0010318473B
:10012000242E0000442E0000103A24BF78C878C165
:10013000FAD8520724BF30C830C144BF04680C60ED
:10014000704700000023002400250026103A28BF35
:1001500078C1FBD8520728BF30C148BF0B60704739
:10016000642900F07D80002070471FB51FBD10B5C9
:1001700010BD00F052F91146FFF7F7FF02F0E8FA60
:1001800000F070F903B4FFF7F2FF03BC00F078F958
:100190000948804709480047FEE7FEE7FEE7FEE71B
:1001A000FEE7FEE7FEE7FEE7FEE7FEE70448054957
:1001B000054A064B7047000057210008ED00000873
:1001C000200200202008002020040020200400201D
:1001D0000FB41CB5074B06AA7B44694600900598EE
:1001E00000F003F90020694600F012F91CBC5DF82C
:1001F00014FB0000350200002DE9F0410E460446D4
:10020000002020622046E168884730B3252805D0C9
:10021000D4E901219047206A401CF2E7E1682046BA
:1002200000278847050018D0A5F14100192802D8F9
:1002300020354FF400673246294620462760FFF7F5
:100240008FFF40B1012804D0F61D26F007060836BE
:10025000D8E7361DD6E72846DAE7206ABDE8F08100
:100260002DE9F0410646002410687529314616A58F
:1002700010D0AFF30080002802DA404213A507E057
:1002800031688A0701D512A502E0490704D511A5F6
:10029000012401E0AFF3008000210A2206F12407C7
:1002A00009E0B0FBF2FCB0FBF2F302FB1C003030C3
:1002B00078541846491C0028F3D123462A46304674
:1002C000BDE8F04100F032B8000000002D00000051
:1002D0002B000000200000004FF0000200B5134684
:1002E00094469646203922BFA0E80C50A0E80C5056
:1002F000B1F12001BFF4F7AF090728BFA0E80C5007
:1003000048BF0CC05DF804EB890028BF40F8042BFF
:1003100008BF704748BF20F8022B11F0804F18BF6C
:1003200000F8012B70477047704770472DE9F04780
:100330000D4699469246044600F124080168880655
:1003400004D5E06921F01001216000E00120A842FD
:1003500001DD471B00E00027A1697A1902EB0900C3
:10036000081AA0612078C00602D42046AFF30080AE
:10037000002608E0D4E901211AF806009047206A17
:10038000401C761C20624E45F4DB2078C0060AD55E
:100390002046AFF3008006E0D4E9012130209047E9
:1003A000206A401C2062381EA7F10107F4DC07E038
:1003B000D4E9012118F805009047206A401C20620A
:1003C000281EA5F10105F3DC2046AFF3008020785C
:1003D000000602D50220BDE8F0870120FBE70000FF
:1003E00001694A1C02610878704700B58FB0CDE9F9
:1003F00001310021059105497944CDE903101146E9
:100400006846FFF7F9FE0FB000BD0000E5FFFFFFF3
:100410000A6802F8010B0A607047754600F02CF874
:10042000AE4605006946534620F00700854618B0E1
:1004300020B5FFF7BBFEBDE820404FF000064FF0AF
:1004400000074FF000084FF0000B21F00701AC4609
:10045000ACE8C009ACE8C009ACE8C009ACE8C00928
:100460008D46704710B50446AFF300802046BDE8C6
:100470001040FFF787BE000000487047BC01002015
:1004800001491820ABBEFEE7260002007047FEE7D8
:10049000704710B590F821100022022905D00421E0
:1004A000816380F82020012010BD01680B6823F0D3
:1004B0000E030B6001680B6823F001030B6090F8DA
:1004C0004030C46B012101FA03F3636080F821100E
:1004D00080F82020104610BD10B590F8211000249F
:1004E000022903D00421816301243DE001680A68E8
:1004F00022F00E020A6001680A6822F001020A6016
:100500001A4A0168914201D1012121E0174A1432AF
:10051000914201D110211BE0144A2832914201D1AD
:10052000891515E0114A3C32914201D189140FE03E
:100530000E4A5032914202D14FF4803108E00B4A0A
:100540006432914202D14FF4801101E04FF080718A
:10055000064A083A5160012180F82110002180F8F4
:100560002010416B01B18847204610BD08000240B1
:1005700070B5044600F004F90546601C02D004483A
:100580000078044400F0FCF8401BA042FAD370BD90
:100590003C0000202DE9F84FDFF8B891002409F164
:1005A000040A0AF1040B23460F270BF1040EC9E0DD
:1005B0000125A5402A40AA427DD1674ED1F804C04A
:1005C000ACEB0608B44532D014DCBCF1030F3AD0D2
:1005D00009DCBCF1000F2AD0BCF1010F1CD0BCF12A
:1005E000020F31D11DE0BCF1110F17D0BCF1120F79
:1005F0002AD119E0B8F5881F19D006DCB8F5803F7C
:1006000015D0B8F5801F1FD111E0B8F5001F0ED02E
:10061000B8F5041F18D10AE0CB6815E0CB681B1DA4
:1006200012E0CB6808330FE0CB680C330CE08B682A
:100630002BB1012B4FF0080303D0456104E00423E4
:1006400002E0056100E00023FF2A01D8064601E030
:1006500000F104064FEA840501D9A5F12005D6F87A
:10066000008007FA05FC28EA0C0803FA05F548EAB9
:100670000508C6F800804D68ED0062D5374DAE69BB
:1006800046F00106AE61AD6924F0030605F00105F0
:100690000095334D06EB050CDCF80850A607360F25
:1006A00007FA06F825EA0805DFF8B880404503D1C7
:1006B0004FF0000817E044E0DFF8AC80404502D17D
:1006C0004FF001080FE0DFF8A480404502D14FF061
:1006D000020808E0DFF89880404502D14FF0030897
:1006E00001E04FF0040808FA06F848EA0508CCF8DB
:1006F00008804D68D9F80060ED034D4601D51643DA
:1007000000E096432E604D68DAF80060AD03554670
:1007100001D5164300E096432E604D68DBF800607B
:10072000ED025D4601D5164300E096432E604D680C
:10073000DEF80060AD02754601D5164300E0964331
:100740002E60641C0D682A46E5407FF431AFBDE899
:10075000F88F00000004014000001110001002405A
:100760000000014000080140000C01400010014061
:10077000001401400AB1016170470904FBE7000061
:1007800001488068704700003C00002070B50400FC
:1007900025D094F83D00002520B984F83C5020462F
:1007A00000F04EF9242084F83D002068016821F013
:1007B000010101602068016841F400410160206886
:1007C000016821F40041016000F0A0FA4D4A61681F
:1007D000914201D84C4900E04C49884201D20120A5
:1007E00070BD4B492368B0FBF1F15E6826F03F060F
:1007F0000E435E606368934206D94FF49673594383
:100800004FF47A73B1FBF3F12368491C1E6A26F09A
:100810003F06314319626168914210D84900401E79
:10082000B0FBF1F2521CC2F30B02042A01D20420E5
:1008300022E0B0FBF1F0401CC0F30B001CE0A2680A
:10084000F2B301EBC10303EB0116431EB3FBF6F356
:100850005B1C43F480431B0549D092B301EBC102FA
:1008600002EB0111401EB0FBF1F0401CC0F30B0085
:1008700040F4804040F400402168CA694CF6FF73A0
:100880009A431043C861D4E9071001432068026805
:1008900022F0C00211430160D4E903010143206842
:1008A000826848F2FF339A4311438160D4E905011D
:1008B00008432168CA6822F0FF021043C86001E0C3
:1008C0000EE016E02068016841F001010160256436
:1008D000202084F83D00256384F83E50002070BD40
:1008E00001EB4106431EB3FBF6F35B1CB3E70120AB
:1008F000C2E701EB4101401EB0FBF1F0401CC0F328
:100900000B00B7E7A086010080841E0000093D00AF
:1009100040420F002DE9F84F1F4690468A46044694
:10092000DDF82890FFF72CFF054694F83D002028BD
:100930007FD11923012240492046009501F0F6F9A4
:10094000002876D194F83C00012872D0012084F868
:100950003C0020680168C90703D1016841F001012A
:1009600001602068016821F400610160212084F8A1
:100970003D00102084F83E0000262664C4F8248040
:100980006785608D20852D48E0622B464A4651469A
:10099000204601F057F990B92068416980690090BC
:1009A00036E02A464946204601F03FFA50B1206C15
:1009B000042804D12068016841F40071016001201D
:1009C000BDE8F88F606A216800780861606A401CA1
:1009D0006062618D491E6185218D491E89B2218524
:1009E00022685369DB435B070BD451B10078106177
:1009F000606A401C6062608D401E6085208D401ED4
:100A000020852A464946204601F06AF90028CED1C1
:100A1000208D0028C5D154F83D0B016841F40071C8
:100A20000160202004F81E09E67766770020C7E7FA
:100A3000FFE70220C4E70000020010000000FFFFF3
:100A400010B586B0002100910191029103910068D8
:100A50001349884222D1134CA06940F00800A061DC
:100A6000A069694600F0080004904FF440700090BF
:100A700012200190032003900B48FFF78BFD0B48D9
:100A8000416841F0E06141F002014160E06940F4F9
:100A90000010E061E06900F40010049006B010BDA1
:100AA0000054004000100240000C014000000140D2
:100AB0000248816802781144816070473C00002040
:100AC000074810B5016841F010010160032000F0F3
:100AD00075F80F2000F006F800F024F8002010BD93
:100AE0000020024070B50D4D04464FF47A7128780D
:100AF000B1FBF0F00A490968B1FBF0F000F0ECFA44
:100B000048B9102C07D200222146501E00F036F8BA
:100B100000206C6070BD012070BD00003C00002012
:100B2000480000200C4808B5816941F0010181614D
:100B3000816901F001010091C16941F08051C161F9
:100B4000C06900F0805000900448416821F0E061E5
:100B500041F00071416008BD0010024000000140FA
:100B6000002809DB00F01F020121914040098000AC
:100B700000F1E020C0F8001170470000F0B40E4B07
:100B80001B680C46C3F30223C3F10705042D00D9EB
:100B90000425191D072901D2002300E0DB1E0126D0
:100BA00006FA05F1491E214099409E40761E1640E6
:100BB0003143F0BC01F01DBD0CED00E0064900F032
:100BC000070208684FF6FF03184040EA0220034A74
:100BD00010430860704700000CED00E00000FA05CB
:100BE0002DE9F0470F46050061D0434E306800F014
:100BF0000700B84209D2306820F00700384330605F
:100C0000306800F00700B84251D128683B4C81079A
:100C100012D5400703D5606840F4E0606060287832
:100C2000000703D5606840F4605060606068A968A0
:100C300020F0F000084360602878C00728D068687A
:100C4000012810D02168022810D0890700292EDA47
:100C5000616821F0030101436160FFF791FD804667
:100C600041F288390DE021688903EFE78901EDE75A
:100C7000FFF786FDA0EB0801494502D90320BDE836
:100C8000F0876068696800F00C00B0EB810FEFD16D
:100C9000306800F00700B8420BD9306820F0070038
:100CA00038433060306800F00700B84201D00120BE
:100CB000E5E72878400705D56068E96820F4E0603A
:100CC000084360602878000706D56068296920F429
:100CD000605040EAC100606000F038F86168084A7E
:100CE000C1F30311515CC84006490860064800681A
:100CF000FFF7F8FE0020C2E700200240001002408B
:100D00002A2F000848000020400000200448054920
:100D100000684968044AC1F30221515CC840704729
:100D200048000020001002403A2F000804480549FE
:100D300000684968044AC1F3C221515CC840704749
:100D400048000020001002403A2F000812A185B090
:100D50000FC98DE80F0014A0144A00680490516870
:100D6000134801F00C03042B10D0082B0ED1C1F353
:100D70008343C9031DF803000AD5516804AAC1F3CF
:100D80004041515C0A4A5043B0FBF1F005B0704756
:100D900008494843FAE7000002030405060708096A
:100DA0000A0B0C0D0E0F1010010200000010024083
:100DB00000127A0000093D002DE9F84F040070D0C0
:100DC0002078C04DC00749D06868C0F38100012871
:100DD00007D06868C0F38100022809D16868C003A1
:100DE00006D52868800339D560680028E7D035E04B
:100DF0006068B0F5803F0BD010B1B0F5A02F11D0D6
:100E0000286820F480302860286820F4802002E0E0
:100E1000286840F480302860606890B1FFF7B0FC2B
:100E200006460AE0286840F480202860F0E700BF0A
:100E3000FFF7A6FC801B642873D828688003F7D5C9
:100E40000CE0FFF79DFC064605E000BFFFF798FCAD
:100E5000801B6428F0D828688003F7D420789A4E45
:100E600080074FF001094FF0000839D5686810F08D
:100E70000C0F07D06868C0F38100022809D16868A8
:100E8000C00306D42868800714D52069012808D13A
:100E900010E02069B0B1C6F80090FFF771FC07467A
:100EA00005E00AE1FFF76CFCC01B0228C4D82868E3
:100EB0008007F7D52868616920F0F80040EAC10092
:100EC00028600DE0C6F80080FFF75AFC074604E0F2
:100ED000FFF756FCC01B022823D828688007F7D4E8
:100EE000207800072CD57948A169D9B1C0F80090C5
:100EF000FFF746FC074604E0FFF742FCC01B022850
:100F00000FD8686A8007F7D571484FF4FA51006826
:100F1000B0FBF1F0009000BF0098411E0091FAD2A2
:100F20000EE080E0C0F80080FFF72AFC074604E0EE
:100F3000FFF726FCC01B022875D8686A8007F7D423
:100F40002078400760D5E8690027C00008D4E86928
:100F500040F08050E861E869012700F0805000907F
:100F60005C480168C90513D40168834641F4807167
:100F70000160FFF705FC824606E000BFFFF700FCBA
:100F8000A0EB0A0064284ED8DBF80000C005F5D5B8
:100F9000E06801280AD008B1052813D0286A20F09B
:100FA00001002862286A20F0040002E0286A40F06C
:100FB00001002862E06841F2883B98B1FFF7E0FB4E
:100FC00082460BE0286A40F004002862EEE700BF8A
:100FD000FFF7D6FBA0EB0A0159455AD8286A8007CB
:100FE000F6D50CE0FFF7CCFB824605E0FFF7C8FB27
:100FF000A0EB0A0159454CD8286A8007F6D41FB1E6
:10100000E86920F08050E861E06988B36968C1F35D
:101010008101022944D00228C6F8608004D0FFF77D
:10102000AFFB044638E034E0FFF7AAFB074604E0D4
:10103000FFF7A6FBC01B02282BD828688001F7D435
:10104000206AB0F5803F05D16868A16820F40030BF
:1010500008436860D4E908010843696821F4741101
:1010600008436860C6F86090FFF78AFB044606E014
:1010700025E000BFFFF784FB001B022809D8286881
:101080008001F7D51BE000BFFFF77AFB001B0228A9
:1010900002D90320BDE8F88F28688001F4D40EE05F
:1010A0000128F7D06868226A00F48031914204D1A7
:1010B000616A00F47010884201D00120EAE7002044
:1010C000E8E7000000100240000042428004424273
:1010D000480000200070004010B5401EB0F1807F35
:1010E00001D3012010BD4FF0E02460610F21601793
:1010F00001F07FFA0020A06107202061002010BDD0
:101100007047704770B590F83C20012A26D0012422
:1011100080F83C40022280F83D2003685A689D68B0
:1011200022F070060A6832435A600D4B02689A42F8
:1011300008D0B2F1804F05D00A4B9A4202D00A4B38
:101140009A4204D1496825F080031943916080F8E0
:101150003D40002180F83C10084670BD022070BD63
:10116000002C0140000400400008004010B50400BD
:1011700003D094F83D0010B107E0012010BD00201D
:1011800084F83C00204600F01FF8022084F83D005F
:10119000211D206800F0E6FF012084F8460084F855
:1011A0003E0084F83F0084F8400084F8410084F851
:1011B000420084F8430084F8440084F8450084F831
:1011C0003D00002010BD000008B5114A016811481B
:1011D000914211D1C16941F00201C161C06900228F
:1011E00000F00200009002211D20FFF7C7FCBDE8BF
:1011F00008401D20FFF7B4BC074A914207D1C169DE
:1012000041F00401C161C06900F00400009008BD14
:1012100000040040001002400008004070B5044681
:1012200090F83C00012817D0012584F83C5002209A
:1012300084F83D002068826822F0770222F47F4221
:1012400082600868502830D00DDC20284DD005DCA5
:1012500098B310283BD148E0022070BD302844D01C
:10126000402834D139E0602828D0702806D0B0F565
:10127000805F2CD0B0F5005F29D10AE0CB68D1E9BE
:101280000121206800F0B1FF2068816841F07701FA
:1012900009E0CB68D1E90121206800F0A6FF2068B1
:1012A000816841F48041816011E0CA684968206822
:1012B00001F050F85021206807E016E0CA6849683C
:1012C000206801F058F86021206800F098FF84F849
:1012D0003D50002084F83C0070BDCA684968206811
:1012E00001F038F840212068EFE7226801461046F7
:1012F000EBE72DE9F0410D46040003D094F83D00E2
:1013000018B108E00120BDE8F081002084F83C001D
:10131000204600F041F8022084F83D0020688168F2
:1013200044F2070291438160211D206800F01AFFFA
:10133000226890689169166A2B68AF69034340F28E
:101340000330814341EA0721A868EF6908434FF65B
:10135000FC418843E96840EA0720014328692F6A75
:10136000000140EA0730084369686D6926F02206EB
:1013700046EA0515294393602268906154F8460BAC
:101380000162012004F81F09E0752076E0762077DD
:10139000A0750020B7E7000000B585B000210091DE
:1013A0000191029103910068B0F1804F18D10D486E
:1013B000C16941F00101C161C16901F001010491FC
:1013C000816941F0040181618069694600F004008F
:1013D000049003200090012002900348FFF7DAF800
:1013E00005B000BD001002400008014070B590F843
:1013F0003E60044690F83F5090F8423090F8432009
:10140000022021B104290ED0012E1BD114E0012E9F
:1014100018D1012B16D184F83E0084F84200012235
:101420000021206820E0012D0CD1012A0AD184F886
:101430003F0084F8430014E0012D03D1012B01D1BA
:10144000012A01D0012070BD84F83E0084F83F00DD
:1014500084F8420084F8430001220021206800F053
:10146000B7FE01220421206800F0B2FE2068016866
:1014700041F001010160002070BD704770B5044665
:10148000006801694FF00005C943890715D4C16898
:10149000C943890711D4E91E016101202077206822
:1014A00080698007204602D0FFF7E7FF04E000F0E4
:1014B000BFF8204600F04EF9257720680169C9433E
:1014C000490717D4C168C943490713D46FF0040111
:1014D0000161022020772068806910F4407F204657
:1014E00002D0FFF7CAFF04E000F0A2F8204600F0A7
:1014F00031F9257720680169C943090716D4C16805
:10150000C943090712D46FF0080101610420207754
:101510002068C0698007204602D0FFF7AEFF04E0D4
:1015200000F086F8204600F015F92577206801695B
:10153000C943C90617D4C168C943C90613D46FF09B
:1015400010010161082020772068C06910F4407FF5
:10155000204602D0FFF791FF04E000F069F8204632
:1015600000F0F8F8257720680169C943C90708D158
:10157000C168C943C90704D1891E0161204600F032
:1015800039F920680169C943090609D4C168C9430A
:10159000090605D46FF0800101612046FFF7B0FD18
:1015A00020680169C943490609D4C168C94349068D
:1015B00005D46FF040010161204600F01CF920685D
:1015C0000169C94389060BD4C168C943890607D498
:1015D0006FF0200101612046BDE87040FFF791BD2A
:1015E00070BD000000B585B000210091019102910D
:1015F000039100680B49884211D10B48816941F081
:10160000080181618069694600F008000490C020EB
:1016100000900220019003900448FEF7BBFF05B044
:1016200000BD00000008004000100240000C014016
:10163000704770B5044690F83C000D4601280AD06A
:10164000012084F83C0042B1042A18D0082A2AD08C
:101650000C2A4DD139E0022070BD206800F0D8FD81
:101660002068816941F0080181612068816921F069
:1016700004018161206881692A69114311E02068B1
:1016800000F0EEFD2068816941F40061816120680D
:10169000816921F480618161206881692A6941EA58
:1016A0000221816124E0206800F006FE2068C16903
:1016B00041F00801C1612068C16921F00401C161E4
:1016C0002068C1692A69114311E0206800F020FEFA
:1016D0002068C16941F40061C1612068C16921F4D9
:1016E0008061C1612068C1692A6941EA0221C16142
:1016F000002084F83C0070BD10B5040003D094F8BD
:101700003D0010B107E0012010BD002084F83C002E
:10171000204600F01EF8022084F83D00211D2068BC
:1017200000F020FD012084F8460084F83E0084F893
:101730003F0084F8400084F8410084F8420084F8B7
:10174000430084F8440084F8450084F83D000020FC
:1017500010BD70477047000010B50446022249B121
:1017600004290ED0082913D094F84100012816D07E
:10177000012010BD94F83E000128F9D184F83E20E4
:101780000FE094F83F000128F2D184F83F2008E0F0
:1017900094F840000128EBD184F8402001E084F85F
:1017A00041200122206800F013FD0F492068884283
:1017B00003D1426C42F4004242642068884208D05F
:1017C000B0F1804F05D00949884202D008498842CB
:1017D00004D1816801F00701062903D0016841F0B6
:1017E00001010160002010BD002C014000040040F8
:1017F000000800407047704770477047F8B50268AE
:1018000004461068D168536910F00F0F4FF00005BF
:1018100053D003F0010601F4907737435FD0C2073D
:1018200005D0CA0503D5226C42F0010222644207AA
:1018300005D5DA0703D0226C42F002022264820747
:1018400005D5DA0703D0226C42F0040222640207B5
:1018500007D501F02002324303D0226C42F0080287
:101860002264226C002A34D0800604D5880602D572
:10187000204600F0B2FD20684069216CC0F3801062
:10188000090700D430B3204600F08FFD206841697D
:1018900049061BD5416921F040014161A06BA8B107
:1018A00058494163A06BFEF717FE002811D0A06BCA
:1018B000416B01B0BDE8F040084783060FD58B06A9
:1018C0000DD52046BDE8F84000F087BD2046FFF763
:1018D00094FFF8BD2046FFF790FF2564F8BD266B06
:1018E0002023012E52D1C60650D5CE064ED5106803
:1018F00050680090506940062AD5A16B086840687E
:101900000004000CEAD0A68D8642E7D9E0858869FC
:10191000202818D0D06820F48070D06020684169F9
:1019200021F0010141612068416921F040014161DC
:1019300084F83E3025632068C16821F01001C16041
:10194000A06BFEF7A6FDA08DE18D401A81B219E0D3
:10195000A08DE18D401A81B2E08D0028BED0002913
:10196000BCD0D06820F49070D0602068426922F02A
:101970000102426184F83E3025632068C26822F08B
:101980001002C2602046FFF737FFF8BD05062BD5D1
:101990000D0629D594F83D002128F6D1A068B0F5B0
:1019A000805F01D12069B0B1206A411C21622168A9
:1019B00000784860E08C401E0004000CE084E4D114
:1019C0002068C16821F08001C1602068C16841F0D1
:1019D0004001C160F8BD206A0088C0F30800506073
:1019E000206A801C2062E5E74006F3D54806F1D561
:1019F000D168204621F04001D16084F83D3000F0EC
:101A000008F9F8BD9B23000870B5040004D094F8D1
:101A10003D00002510B106E0012070BD84F83C5067
:101A2000204600F023F8242084F83D002068C16897
:101A300021F40051C160204600F02AFD20680169B0
:101A400021F4904101612068416921F02A0141613E
:101A50002068C16841F40051C1602564202084F8E9
:101A60003D0084F83E00002070BD000030B585B018
:101A70000024009401940294039400681849884259
:101A80002CD11848C16941F48021C161C16901F4B8
:101A900080210491816941F0080181618069124DC2
:101AA00000F0080004904FF4806000900220019044
:101AB0000320039069462846FEF76CFDE814CDE943
:101AC0000004694628460294FEF764FD0022114690
:101AD0002720FFF753F82720FFF742F805B030BD65
:101AE0000048004000100240000C014090F83E30D9
:101AF000202B0ED159B152B190F83C30012B08D0B7
:101B0000012380F83C300023036300F01DBD012059
:101B1000704702207047000000680E49884218D1C3
:101B20000D480178401E0278914205D040F6FC0134
:101B300041614FF00001816105D14FF001018161E8
:101B40004FF42F6141614FF0010203490348FFF751
:101B5000CDBF704700480040010000207801002000
:101B60002DE9F843044690F83D001F4616460D4601
:101B700020284CD1C5B1BEB194F83C00012846D014
:101B8000012084F83C004FF00008C4F84080212078
:101B900084F83D00FEF7F4FDA6848146E684A06843
:101BA000B0F5805F03D004E00120BDE8F883206930
:101BB00028B12E465FF0000584F83C800EE0002638
:101BC000FAE78021204600F0DAFCA0B9AEB116F8A1
:101BD000010B21684860E08C401EE084E08C4B469D
:101BE0004FF0000200970028EBD14FF04001204653
:101BF00000F0C5FC30B10320D7E735F8020BC0F385
:101C00000800E6E7202084F83D000020CDE7022010
:101C1000CBE77047FEE701684A69D24352050FD40B
:101C20006FF480624A61002140F8301F2022427325
:101C30008173026942F0040202610173012070475E
:101C400000207047F8B50446C06A1E460D46174688
:101C5000082807D0012805D010F5803F02D0206B5E
:101C6000122804D12068016841F480710160134694
:101C700000224FF001112046009600F057F840B1C5
:101C800020680068C00502D54FF40070206403206E
:101C9000F8BD2069B0F5804F0ED00620216800EA1B
:101CA000D51040F0F000086133463A460B49204613
:101CB00000F070F878B902E005F0FE0000E0E8B24C
:101CC00021680861054933463A46891F204600F0DD
:101CD00061F80028DCD00120F8BD000008000100F8
:101CE00070B516460D4604460DE02046FFF793FFFB
:101CF00008B1012070BD681C05D0FEF741FD801BB6
:101D0000A84207D835B120684069C0434007ECD4E9
:101D1000002070BD002044F8300F20216173A073B3
:101D2000216941F0200121612073E2E72DE9F047AC
:101D30001E4690460D460446C1F30747DDF8209045
:101D400008E0701C06D0FEF71BFDA0EB0900B042B6
:101D50000FD876B12068012F18D0806925EA0000DD
:101D60000004000C14D000214145EAD00020BDE859
:101D7000F087002044F8300F20216173A07321699F
:101D800041F02001216120730120F0E74069E5E77F
:101D90000121E9E72DE9F0479A4691460E460446AF
:101DA00000254FF02008C1F3074725E0206840696F
:101DB000C043400514D42068016841F400710160FB
:101DC00021686FF480604861256384F83D8084F861
:101DD0003E50206C40F00400206484F83C501FE02A
:101DE000B9F1FF3F08D0FEF7CBFCA0EB0A01494553
:101DF0000CD8B9F1000F09D02068012F13D08069E9
:101E000026EA00000004000C0BD0CFE744F8305F56
:101E100084F80D80A573206940F0200020612573AF
:101E20000120BDE8F0874069EAE770B516460D4627
:101E300004460DE02046FFF7EEFE08B1012070BD1C
:101E4000681C05D0FEF79CFC801BA84207D835B162
:101E500020684069C0430006ECD4002070BD00201B
:101E600044F8300F20216173A073216941F02001F3
:101E700021612073E2E7000030B585B000241848E6
:101E80000094019402940394816941F020018161DE
:101E9000816901F020010491816941F004018161AF
:101EA000816901F004010491816941F008018161B7
:101EB00080690C4D00F00800049000221021284693
:101EC000FEF758FC102000900120CDE9010402200B
:101ED000039069462846FEF75DFB05B030BD000063
:101EE000001002400008014010B58CB02421684663
:101EF000FEF7F2F90024154809944FF080410A9446
:101F0000C0E900144FF6FF71C0E902410461846129
:101F10000320CDE900040120CDE902040494CDE9B9
:101F200005400794694609480894FFF7E2F908B1AB
:101F300072B6FEE7099409A904480A94FFF7E2F88B
:101F4000002801D072B6FEE70CB010BDA000002042
:101F500010B586B0002416480094019402940394AE
:101F600004941249059401604821C0E901146321D9
:101F7000C0E903148461FFF7F9F808B172B6FEE70F
:101F80004FF48050009069460948FFF747F908B1BF
:101F900072B6FEE7049404A905480594FFF7B2F869
:101FA000002801D072B6FEE706B010BD0004004064
:101FB000E800002010B58EB000240794089409941E
:101FC0000A940B941C2168460C94FEF785F922486C
:101FD000204901604821C0E9011440F2E731C0E91D
:101FE00003148461FFF7C2F808B172B6FEE74FF43C
:101FF0008050079007A91848FFF710F908B172B68A
:10200000FEE71548FFF778FB08B172B6FEE70B94C0
:102010000BA911480C94FFF775F808B172B6FEE7EA
:102020006020CDE900040294002269460A48049425
:10203000FFF7FFFA08B172B6FEE7042269460648C8
:10204000FFF7F7FA08B172B6FEE70348FFF7CAFADE
:102050000EB010BD0008004030010020FEE7FEE792
:102060002DE9F0471F4CDFF880801D4EC4E907685A
:10207000666261886069401A00F084FDA062216B8D
:102080000546894600F02EFC0746E0624946284690
:1020900000F0D6FEC4E90C500146304600F0D2FDF7
:1020A00081463946304600F0CDFD06462946404679
:1020B00000F0C8FDA16B00F015FC314600F012FCE9
:1020C000494600F00FFC0949A063884202DDA16384
:1020D000BDE8F08710F1FF4FFAD30020A063F7E7C7
:1020E0008FC2F53C00000020CDCCCC3D00C079442F
:1020F00070477047FEF7DCBC30B58FB028216846CA
:10210000FEF7EAF814210AA8FEF7E6F80121080410
:10211000CDE900100024029402250491CDE9075076
:102120004FF4E01009906846FEF746FE08B172B61B
:10213000FEE70F20CDE90A054FF48060CDE90C40A1
:1021400002210AA80E94FEF74BFD002801D072B6BA
:10215000FEE70FB030BD70470148FFF78FB90000B0
:10216000E8000020F0B50268164B174C174D4FF0F1
:102170008047984205D0B84203D0A04201D0A8427F
:1021800003D122F070064A683243984205D0B84223
:1021900003D0A04201D0A84203D122F44074CA68FF
:1021A00022434C6922F08002224302608A68C262A4
:1021B0000A688262984201D1096901630121416183
:1021C000F0BD0000002C0140000400400008004069
:1021D00010B501F01F030121046A99408C43046289
:1021E000016A9A401143016210BD10B5846842EA49
:1021F000032224F47F440A432243826010BD826894
:1022000022F070020A4342F007018160704700002B
:1022100030B5026A22F001020262026A43688469F0
:1022200024F073050C682C4322F002058A682A43C7
:102230000A4DA8420BD122F00805CA6823F4407366
:102240002A434D6922F004021D438B692B434360EE
:10225000846149684163026230BD0000002C014086
:1022600030B5026A22F010020262026A4368846991
:102270000D6824F4E64444EA05248D6822F0200227
:1022800042EA05120B4DA8420ED1CD6822F0800221
:1022900042EA05124D6923F4406343EA85038D69E0
:1022A00022F0400243EA8503436084614968816308
:1022B000026230BD002C014030B5026A22F4807207
:1022C0000262036A4268C46923F4007324F0730550
:1022D0000C682C438D6843EA05230C4DA8420ED1AF
:1022E000CD6823F4006343EA05234D6922F440528C
:1022F00042EA05128D6923F4806342EA05124260C6
:10230000C4614968C163036230BD0000002C014014
:1023100030B5026A22F480520262046A4268C369DC
:102320000D6823F4E64343EA05238D6824F4005442
:1023300044EA0534064DA84204D14D6922F4804296
:1023400042EA85124260C36149680164046230BD9B
:10235000002C014010B5036A046A24F001040462F1
:10236000846924F0F00444EA021423F00A020A43C8
:102370008461026210BD10B5036A23F0100303628A
:102380008369046A23F4704343EA023224F0A00311
:1023900043EA01118261016210BD10B5406A00215B
:1023A000C185C184FFF729FA10BD0168CA6822F40B
:1023B0009072CA6001684A6922F001024A61016BA9
:1023C000012904D10168CA6822F01002CA602021E4
:1023D00080F83E1000210163704708B590F83E1068
:1023E000222901D0022008BD82684FF480539A420E
:1023F00001D1016921B1816A9A421BD04AB10AE038
:102400000268816A5268C2F308020A80816A891CE4
:1024100008E0026972B10268526802F07F020A7035
:10242000816A491C8162C18D491E0904090CC1855C
:1024300003D019E002685268F1E70168CA6822F027
:102440002002CA600168CA6822F48072CA6001680A
:102450004A6922F001024A61202180F83E10016B96
:10246000012903D0FFF758FB002008BD00210163BC
:102470000168CA6822F01002CA6001680A68D206C0
:1024800002D50A6849680091818DFFF7B5F9EBE73D
:1024900070B5044600680169E26821F440511143B7
:1024A00001612169A0680843616908432168CA681D
:1024B00041F20C639A430243CA6020684169A269F1
:1024C00021F44071114341611E492068884202D1C4
:1024D000FEF72CFC01E0FEF719FC00EBC00101EB5C
:1024E0000012606864218000B2FBF0F3B3FBF1F3EB
:1024F0006FF018067343B2FBF0F5B2FBF0F605EB94
:102500008305322303EB0515B5FBF1F5B6FBF1F6B8
:1025100005F0F00505EB0615B2FBF0F6B2FBF0F0A6
:10252000B0FBF1F06FF01802504306EB800003EBB4
:102530000010B0FBF1F0216800F00F002844886023
:1025400070BD00000038014081628285C285002193
:102550000164222280F83E2080F83C100168CA689D
:1025600042F48072CA6001684A6942F001024A611D
:102570000068C16841F02001C160002070472DE96A
:10258000F041984617460E460446069D1DE0681C1D
:102590001BD02DB1FEF7F4F8A0EB0800A84214D927
:1025A0002068C16821F4D071C1602068416921F0C0
:1025B00001014161202084F83D0084F83E000020A4
:1025C00084F83C000320BDE8F0812068006836EA0A
:1025D000000004D00020B842D9D00020F3E7012049
:1025E000F9E700000148FFF709B900007801002071
:1025F000FEE70907090E002804DB00F1E02080F85F
:102600000014704700F00F0000F1E02080F8141D66
:10261000704710B5802000F051F80024202000F011
:102620006DF8641C462CF9DB10BD10B53220FDF7A7
:102630009FFF302000F042F80520FDF799FF302081
:1026400000F03CF80120FDF793FF302000F036F851
:102650000A20FDF78DFF202000F030F80A20FDF75A
:1026600087FF282000F02AF80120FDF781FF0820CD
:1026700000F024F80120FDF77BFF012000F01EF898
:102680000120FDF775FF0120FDF772FF062000F025
:1026900015F80120FDF76CFFBDE810400C2000F09C
:1026A0000DB810B1012805D102E041F0800101E030
:1026B00041F0C001C8B200F001B800001CB500F044
:1026C000F00141F00C028DF8042041F008010001F6
:1026D0008DF8051040F00C018DF8061040F0080050
:1026E0008DF8070064200090042301AA4E210248BF
:1026F000FEF710F91CBD00004C0000201CB500F0D6
:10270000F00141F00D028DF8042041F009010001B3
:102710008DF8051040F00D018DF8061040F009000D
:102720008DF8070064200090042301AA4E2102487E
:10273000FEF7F0F81CBD00004C00002010B5044668
:1027400002E0641CFFF7DAFF20780028F9D110BD01
:10275000FEF7B6F9FFF7D0FCFFF78EFBFFF7C4FBDF
:10276000FFF7F6FBFFF726FC4448434900240160CD
:102770004349C0E901144FF48041C0E90341446179
:102780008461C4610462FEF701F808B172B6FEE725
:102790003D483C4901604FF4E131C0E901140C218E
:1027A000C460C0E904418461C461FFF72DF908B138
:1027B00072B6FEE7012235493348FFF797F92F48F3
:1027C00004215430FEF712FE2F4800214838FEF74E
:1027D000C3FF2D4804214838FEF7BEFFFDF7D0FFA8
:1027E0002A4D6D1EE860FFF720FF29A0FFF7A6FF26
:1027F0004FF4FA60FDF7BCFEFFF70BFFFDF7C0FFDB
:10280000E968401A00F0D6F9296900F0E7FAF5D82E
:10281000FDF7B6FFE860194854300068416AA960C6
:1028200044621E48296900F0CBF81D4900F00AFAFD
:102830000646A86800F0A6F9314600F003FA1949E7
:1028400000F0BEF800F07EF910496880C91C020A49
:102850000A704870642302220B48FFF781F96888E8
:1028600000F022F8FFF7FCFBA86B00F06BF90649BB
:10287000483909684863C1E7005400404C00002013
:10288000A0860100004800407801002001000020DF
:1028900057616974696E67212121000000007A4444
:1028A000000070420000A74410B586B00446142111
:1028B0006846FDF711FD00210846FFF7F2FE2246AB
:1028C00005A16846FDF784FC6846FFF737FF04A0C2
:1028D000FFF734FF06B010BD73703A202564200066
:1028E00072706D0090EA010F48BF81F0004100F165
:1028F000AE82421A3CBF801A89184FEAD0524FF07C
:102900007F4C1CEA410FA2EBD15318BF9CEA026F27
:1029100000F03B804FF0004C4CEA00204CEA0121D3
:1029200021FA03FC10EB0C0C1ED202F1FF325FEA1D
:102930001C2040EBC25038BF70471CF07F0F4FEA9D
:10294000400C18BFBCF17F4F38BF7047C3F1200364
:10295000994008BF20F00100BCF17F4F38BF70479D
:10296000A0F1C04000F035BA4FEA3C00000A40EB4D
:10297000C25028BF1CF0FF0F4FEA400CE6D018BF32
:10298000BCF17F4F38BF7047EAE79CEA026F05D081
:1029900010EA5C0F08BF00F00040704710B500F06F
:1029A000D2F900BF64FBBE3E401058BFC0F14040AA
:1029B000491058BFC1F140418142EFF30080704798
:1029C0004FF47F0C1CEAD0121EBF1CEAD11392EA0E
:1029D0000C0F93EA0C0F00F0858090EA010F48BFBE
:1029E00042F4807240F4000C41F400002CF07F416E
:1029F00020F07F4000B58142A2EB03020FF2081CD9
:102A0000ACEB504EC0F100009EF800E04FEA4E0ED5
:102A100000FB0EFC38BF49004FEA2C1C02F5FA02FD
:102A20000CFB0EF34FEACE1E4FEA112C4FEAC121E8
:102A30000EEB635E42EB22420EFB0CFC4FEA1C5392
:102A400000FB03114FEA112C4FEA01310EFB0CFC85
:102A50004FEADC4C00FB0C11C14228BF09184CEBBB
:102A600003335DF804EB10EB410143EBC250B2F5C8
:102A70007C0F38BF704729D512F0F00F1CBF00F152
:102A8000C04000F0004070470081828384858687C3
:102A900088898B8C8D8E8F919293959697999A9C1D
:102AA0009D9FA0A2A3A5A7A8AAACAEB0B2B3B5B78C
:102AB000B9BCBEC0C2C5C7C9CCCED1D4D7D9DCDF62
:102AC000E2E6E9ECF0F3F7FAFE0000004FEA400C12
:102AD0000CF1807CBCF17E4F28BF7047B0F1C04044
:102AE00000F077B990EA010F0CEAD11348BF42F425
:102AF0008072624538BF634507D213F47F0F16D04A
:102B000080EA010000F00040704710B500F01BF9AA
:102B1000097EFC3E00F005B880EA010000F00040AC
:102B2000704780EA010000F0004000F052B912F452
:102B30007F0F04BF0248704780EA010000F049B9E6
:102B40000000C07FC10DD1F19E0206DB4FEA0023D9
:102B500043F0004323FA02F07047004207D54FEAE2
:102B60004001B1F1FE4F02D24FF00000704710B5A6
:102B700000F0E9F849922480002070476FEA2000B5
:102B80007047000010F0004148BF4042B0FA80F3A7
:102B900010FA03F2C3F19D030BD051EAC35101EBCC
:102BA0001220530638BF704700F1010008BF20F023
:102BB00001007047B0FA80F310FA03F2C3F19D03ED
:102BC0000AD0D90501EB1220530638BF704700F137
:102BD000010008BF20F001007047000050EA010C1E
:102BE00000F113801CF5000F58BFBCF5000F01D495
:102BF0008842704707D710F5000F58BF11F5000F36
:102C000015D488427047894270471CF5000F04D5DF
:102C1000BCF5000FF7D5814270474FF0807C1CEB6C
:102C2000400F38BF1CEB410F01D28142704710B5F5
:102C300000F089F8922449004FF000504FF0805185
:102C4000FFF7B2BE4FF47F0C1CEAD0121EBF1CEA85
:102C5000D11392EA0C0F93EA0C0F00F0478090EA30
:102C6000010F48BF42F480724FF0004C4CEA002044
:102C70004CEA012102EB0302A0FB0113A2F50002C2
:102C8000002918BF43F001035B0028BF4FEA33035C
:102C900042EB22425FEA132C4CEBC2502EBFBCEB3E
:102CA000436FB2F57C0F70474FEA036CBCF1004FE5
:102CB00008BF20F00100B2F57C0F38BF70470BD57C
:102CC00082F0FF0212F5803FC8BF704700F1C0409C
:102CD000D8BF00F00040704700F5000C5FEA4C0CD4
:102CE00048BF7047B0F1C04000F073B890EA010FE0
:102CF0000CEAD11348BF42F48072624538BF634585
:102D000004D280EA010000F00040704710B500F0E6
:102D10001AF800BF8900013E00F007B800F009B8BA
:102D20005FEA410C5FEA1C6C08D080EA010000F009
:102D300050B85FEA400C5FEA1C6CF6D14FF00040DF
:102D4000A0F5800070470EF1020E2EF0030E5EF823
:102D5000044B244204D44FEA4102B2F17F4F11D810
:102D60004FEA4003B3F17F4F0CD80ED14FEAD07C2D
:102D7000B2F17F4F0CEB4C0C0CF1020C08BF4CEB8A
:102D8000D17C04E04FF0080C01E04FEAD17C0CEB61
:102D90004C0324FA03F404F00704B4F1040C06D243
:102DA0000EEB840CBDE810404CF0010C6047DFE8EE
:102DB0000CF0070802024FF00040A0F5800010BDA3
:102DC0000846420018BFD2F1807288BF00F0004070
:102DD00010BDFF2141EAD050C005704751EA000CF8
:102DE00000F113801CF5000F58BFBCF5000F01D493
:102DF0008142704707D711F5000F58BF10F5000F3B
:102E000015D481427047894270471CF5000F04D5E4
:102E1000BCF5000FF7D5884270474FF0807C1CEB63
:102E2000410F38BF1CEB400F01D28842704780EA47
:102E3000010081EA000180EA0100FFF7F8BE00000E
:102E400090EA010F48BF81F000413FF552AD421AB0
:102E500004D882F00042A0EB020011444FEAD052A5
:102E60004FF07F4C1CEA410FA2EBD15318BF9CEAF4
:102E7000026F4AD04FF0004C4CEA00204CEA01218E
:102E800021FA03FCB0EB0C0C0FD412F0FE0F36D07D
:102E90005FEA4C001DD5001240EBC25038BF7047AE
:102EA0001CF03F0F18BF70470BE0A2F101025FEA70
:102EB0001C2040EBC25038BF70471CF07F0F18BF7A
:102EC0007047C3F12003994014BF401E20F0010059
:102ED000704780084FEA122308BF7047B0FA80FCA1
:102EE000A2EB0C02CCF1280C60FA0CF093EA122F42
:102EF00004BF00EBC25070474FEAC3707047130A1B
:102F00005FEADC1008BF7047F6E79CEA026F04D066
:102F100010EA5C0F08BF0020704710B5FFF713FFE1
:102F200040DFF63E81F000407047000000000000E6
:102F30000000010203040607080900000000010266
:102F400003040000642F0008000000204C00000073
:102F500028010008B02F00084C000020D407000012
:102F600044010008650000000000000000000000AF
:102F7000000000000000C842FC0800000000000043
:102F80000000000000000000000000000000000041
:102F90000000000000000000000000000000000031
:102FA0000100000010000000000000000024F400F8
:04000005080000ED02
:00000001FF
